:020000040800F2
:10000000680600206D0100087501000877010008EE
:10001000790100087B0100087D0100080000000054
:100020000000000000000000000000007F01000848
:10003000810100080000000083010008850100081C
:100040008701000887010008870100088701000870
:100050008701000887010008870100088701000860
:100060008701000887010008870100088701000850
:100070008701000887010008870100088701000840
:100080008701000887010008870100088701000830
:100090008701000887010008870100088701000820
:1000A0008701000887010008870100088701000810
:1000B0008701000887010008870100088701000800
:1000C00087010008870100088701000887010008F0
:1000D00087010008870100088701000887010008E0
:1000E00087010008870100088701000800F002F876
:1000F00000F02CF80AA090E8000C82448344AAF196
:100100000107DA4501D100F021F8AFF2090EBAE893
:100110000F0013F0010F18BFFB1A43F0010318473B
:100120000005000010050000002300240025002623
:10013000103A28BF78C1FBD8520728BF30C148BF4A
:100140000B6070471FB51FBD10B510BD00F031F832
:100150001146FFF7F7FF00F049FA00F04FF803B43B
:10016000FFF7F2FF03BC00F057F800000948804792
:1001700009480047FEE7FEE7FEE7FEE7FEE7FEE789
:10018000FEE7FEE7FEE7FEE704480549054A064BA1
:100190007047000085050008ED0000086800002099
:1001A000680600206802002068020020704770473F
:1001B0007047754600F02CF8AE4605006946534678
:1001C00020F00700854618B020B5FFF7DDFFBDE839
:1001D00020404FF000064FF000074FF000084FF0AE
:1001E000000BAC46ACE8C009ACE8C009ACE8C009FB
:1001F000ACE8C00921F007018D46704710B50446F0
:10020000AFF300802046BDE81040FFF7A8BF000014
:10021000004870470000002001491820ABBEFEE7EF
:10022000260002007047000082B00190ADF8021075
:1002300000208DF8010001988068BDF80210084286
:1002400004D0FFE701208DF8010003E000208DF8C5
:100250000100FFE79DF8010002B0704782B00190F5
:100260008DF803109DF8030048B1FFE7019A41F2B1
:100270001801C4F2020108681043086008E0019AFE
:1002800041F21801C4F20201086890430860FFE7D8
:1002900002B0704782B001908DF803109DF8030002
:1002A00030B1FFE70199088840F04000088005E080
:1002B0000199088820F040000880FFE702B07047ED
:1002C00082B00190ADF8021000208DF80100019875
:1002D0000089BDF802100840000420B1FFE70120AA
:1002E0008DF8010003E000208DF80100FFE79DF884
:1002F000010002B07047000081B000900098808932
:1003000001B0704783B0029001910020ADF8020067
:1003100002980088ADF80200BDF8020000F44150D8
:10032000ADF80200019908884A8810438A88104372
:10033000CA8810430A8910434A8910438A891043A6
:10034000C9890143BDF802000843ADF80200BDF8B9
:100350000200029908800299888B20F4006088834B
:100360000198008A0299088203B0704780B500F0B6
:1003700001F880BD84B000200390029041F200019A
:10038000C4F20201086840F480300860FFE741F2DF
:100390000000C4F20200006800F4003002900398EC
:1003A00001300390FFE702990020019039B9FFE77F
:1003B0000398B0F5A06018BF01200190FFE70198F5
:1003C000C0070028E3D1FFE741F20000C4F20200B9
:1003D00000688003002803D5FFE70120029002E0B7
:1003E00000200290FFE70298012851D1FFE742F276
:1003F0000001C4F20201086840F0100008600868BB
:1004000020F007000860086840F00200086041F230
:100410000401C4F2020100910868086008680860DD
:10042000086840F480600860086820F47C10086068
:10043000086840F4E810086041F20001C4F20201CB
:10044000086840F080700860FFE741F20000C4F2E5
:10045000020000688001002801D4FFE7F5E741F2BF
:100460000401C4F20201086820F003000860086873
:1004700040F002000860FFE741F20400C4F202000D
:10048000006800F00C00082801D0FFE7F4E700E066
:10049000FFE704B07047000080B584B003904FF4CC
:1004A000805001210291FFF7D9FE039938208881FD
:1004B0000399002008810399C880039988800399D3
:1004C00008800399C88103994FF48270488003998A
:1004D0004FF440704881039943F20000C4F20100D8
:1004E0000190FFF70FFF01980299FFF7D3FE04B0C8
:1004F00080BD000080B584B08DF80E0002919DF89B
:100500000E0001460191012804D0FFE7019802285E
:1005100014D027E0FFE743F20000C4F201000121FC
:10052000FFF7CEFE08B9FFE7F5E743F20000C4F29B
:100530000100FFF7E1FE0299087013E0FFE743F6C0
:100540000000C4F200000121FFF7BAFE08B9FFE77E
:10055000F5E743F60000C4F20000FFF7CDFE029974
:100560000870FFE7029820B9FFE701208DF80F001F
:1005700003E000208DF80F00FFE79DF80F0004B0A6
:1005800080BD000080B541F20002C4F20202106892
:1005900040F00100106041F20401C4F20201086859
:1005A0000023CFF6FF031840086010684FF6FF7372
:1005B000CFF6F66318401060106820F480201060B9
:1005C000086820F4FE00086041F20801C4F202014C
:1005D0004FF41F000860FFF7C9FE4EF60851CEF237
:1005E00000014FF00060086080BD000080B586B05B
:1005F000002005906846FFF74FFFFFE740F6000038
:10060000C4F201001021FFF70FFE40B9FFE740F2EE
:100610006001C2F200010120FFF76CFFFFE7EDE788
:1006200030060008000000206806000028010008CD
:04000005080000ED02
:00000001FF
